{
  "_format": "hh-sol-artifact-1",
  "contractName": "ZapMini",
  "sourceName": "contracts/ZapMini.sol",
  "abi": [
    {
      "anonymous": false,
      "inputs": [
        {
          "indexed": true,
          "internalType": "address",
          "name": "previousOwner",
          "type": "address"
        },
        {
          "indexed": true,
          "internalType": "address",
          "name": "newOwner",
          "type": "address"
        }
      ],
      "name": "OwnershipTransferred",
      "type": "event"
    },
    {
      "anonymous": false,
      "inputs": [
        {
          "indexed": true,
          "internalType": "address",
          "name": "token",
          "type": "address"
        },
        {
          "indexed": true,
          "internalType": "address",
          "name": "lpToken",
          "type": "address"
        },
        {
          "indexed": true,
          "internalType": "uint256",
          "name": "amount",
          "type": "uint256"
        }
      ],
      "name": "ZapIn",
      "type": "event"
    },
    {
      "inputs": [],
      "name": "DAI",
      "outputs": [
        {
          "internalType": "address",
          "name": "",
          "type": "address"
        }
      ],
      "stateMutability": "view",
      "type": "function"
    },
    {
      "inputs": [],
      "name": "FACTORY",
      "outputs": [
        {
          "internalType": "contract IUniswapV2Factory",
          "name": "",
          "type": "address"
        }
      ],
      "stateMutability": "view",
      "type": "function"
    },
    {
      "inputs": [],
      "name": "ROUTER",
      "outputs": [
        {
          "internalType": "contract IUniswapV2Router02",
          "name": "",
          "type": "address"
        }
      ],
      "stateMutability": "view",
      "type": "function"
    },
    {
      "inputs": [],
      "name": "USDC",
      "outputs": [
        {
          "internalType": "address",
          "name": "",
          "type": "address"
        }
      ],
      "stateMutability": "view",
      "type": "function"
    },
    {
      "inputs": [],
      "name": "USDT",
      "outputs": [
        {
          "internalType": "address",
          "name": "",
          "type": "address"
        }
      ],
      "stateMutability": "view",
      "type": "function"
    },
    {
      "inputs": [],
      "name": "WETH",
      "outputs": [
        {
          "internalType": "address",
          "name": "",
          "type": "address"
        }
      ],
      "stateMutability": "view",
      "type": "function"
    },
    {
      "inputs": [],
      "name": "WMATIC",
      "outputs": [
        {
          "internalType": "address",
          "name": "",
          "type": "address"
        }
      ],
      "stateMutability": "view",
      "type": "function"
    },
    {
      "inputs": [
        {
          "internalType": "address",
          "name": "_token0",
          "type": "address"
        },
        {
          "internalType": "address",
          "name": "_token1",
          "type": "address"
        },
        {
          "internalType": "address",
          "name": "_intermediateAddress",
          "type": "address"
        }
      ],
      "name": "addIntermediateToken",
      "outputs": [],
      "stateMutability": "nonpayable",
      "type": "function"
    },
    {
      "inputs": [
        {
          "internalType": "address",
          "name": "_router",
          "type": "address"
        },
        {
          "internalType": "address",
          "name": "_factory",
          "type": "address"
        },
        {
          "internalType": "address",
          "name": "_USDT",
          "type": "address"
        },
        {
          "internalType": "address",
          "name": "_DAI",
          "type": "address"
        },
        {
          "internalType": "address",
          "name": "_WMATIC",
          "type": "address"
        },
        {
          "internalType": "address",
          "name": "_USDC",
          "type": "address"
        },
        {
          "internalType": "address",
          "name": "_WETH",
          "type": "address"
        }
      ],
      "name": "initialize",
      "outputs": [],
      "stateMutability": "nonpayable",
      "type": "function"
    },
    {
      "inputs": [
        {
          "internalType": "bytes32",
          "name": "",
          "type": "bytes32"
        }
      ],
      "name": "intermediateTokens",
      "outputs": [
        {
          "internalType": "address",
          "name": "",
          "type": "address"
        }
      ],
      "stateMutability": "view",
      "type": "function"
    },
    {
      "inputs": [],
      "name": "owner",
      "outputs": [
        {
          "internalType": "address",
          "name": "",
          "type": "address"
        }
      ],
      "stateMutability": "view",
      "type": "function"
    },
    {
      "inputs": [
        {
          "internalType": "address",
          "name": "_token0",
          "type": "address"
        },
        {
          "internalType": "address",
          "name": "_token1",
          "type": "address"
        }
      ],
      "name": "removeIntermediateToken",
      "outputs": [],
      "stateMutability": "nonpayable",
      "type": "function"
    },
    {
      "inputs": [],
      "name": "renounceOwnership",
      "outputs": [],
      "stateMutability": "nonpayable",
      "type": "function"
    },
    {
      "inputs": [
        {
          "internalType": "address",
          "name": "_address",
          "type": "address"
        }
      ],
      "name": "routePair",
      "outputs": [
        {
          "internalType": "address",
          "name": "",
          "type": "address"
        }
      ],
      "stateMutability": "view",
      "type": "function"
    },
    {
      "inputs": [
        {
          "internalType": "address",
          "name": "",
          "type": "address"
        }
      ],
      "name": "routePairAddresses",
      "outputs": [
        {
          "internalType": "address",
          "name": "",
          "type": "address"
        }
      ],
      "stateMutability": "view",
      "type": "function"
    },
    {
      "inputs": [
        {
          "internalType": "address",
          "name": "_asset",
          "type": "address"
        },
        {
          "internalType": "address",
          "name": "_route",
          "type": "address"
        }
      ],
      "name": "setRoutePairAddress",
      "outputs": [],
      "stateMutability": "nonpayable",
      "type": "function"
    },
    {
      "inputs": [
        {
          "internalType": "address",
          "name": "newOwner",
          "type": "address"
        }
      ],
      "name": "transferOwnership",
      "outputs": [],
      "stateMutability": "nonpayable",
      "type": "function"
    },
    {
      "inputs": [
        {
          "internalType": "address",
          "name": "token",
          "type": "address"
        }
      ],
      "name": "withdraw",
      "outputs": [],
      "stateMutability": "nonpayable",
      "type": "function"
    },
    {
      "inputs": [
        {
          "internalType": "address",
          "name": "_to",
          "type": "address"
        },
        {
          "internalType": "address",
          "name": "_receiver",
          "type": "address"
        }
      ],
      "name": "zapIn",
      "outputs": [],
      "stateMutability": "payable",
      "type": "function"
    },
    {
      "inputs": [
        {
          "internalType": "address",
          "name": "_from",
          "type": "address"
        },
        {
          "internalType": "uint256",
          "name": "_amount",
          "type": "uint256"
        },
        {
          "internalType": "address",
          "name": "_to",
          "type": "address"
        },
        {
          "internalType": "address",
          "name": "_receiver",
          "type": "address"
        }
      ],
      "name": "zapInToken",
      "outputs": [
        {
          "internalType": "uint256",
          "name": "liquidity",
          "type": "uint256"
        }
      ],
      "stateMutability": "nonpayable",
      "type": "function"
    },
    {
      "inputs": [
        {
          "internalType": "address",
          "name": "_from",
          "type": "address"
        },
        {
          "internalType": "uint256",
          "name": "_amount",
          "type": "uint256"
        },
        {
          "internalType": "address",
          "name": "_to",
          "type": "address"
        },
        {
          "internalType": "address[]",
          "name": "_path1",
          "type": "address[]"
        },
        {
          "internalType": "address[]",
          "name": "_path2",
          "type": "address[]"
        },
        {
          "internalType": "address",
          "name": "_receiver",
          "type": "address"
        }
      ],
      "name": "zapInTokenV2",
      "outputs": [
        {
          "internalType": "uint256",
          "name": "liquidity",
          "type": "uint256"
        }
      ],
      "stateMutability": "nonpayable",
      "type": "function"
    },
    {
      "inputs": [
        {
          "internalType": "address",
          "name": "_from",
          "type": "address"
        },
        {
          "internalType": "uint256",
          "name": "amount",
          "type": "uint256"
        },
        {
          "internalType": "address",
          "name": "_receiver",
          "type": "address"
        }
      ],
      "name": "zapOut",
      "outputs": [],
      "stateMutability": "nonpayable",
      "type": "function"
    },
    {
      "stateMutability": "payable",
      "type": "receive"
    }
  ],
  "deployedBytecode": "0x6080604052600436106101795760003560e01c8063934ff8ce116100cb578063c54e44eb1161007f578063e0bab4c411610059578063e0bab4c41461043d578063f2fde38b1461045d578063f9d6d5a71461047d57600080fd5b8063c54e44eb146103dd578063c74f4998146103fd578063d63218031461041d57600080fd5b8063ad5c4648116100b0578063ad5c464814610367578063bb15c13714610387578063bdc49cd4146103bd57600080fd5b8063934ff8ce14610300578063985c9d561461032e57600080fd5b80634d95cad91161012d578063715018a611610107578063715018a6146102ad57806389a30271146102c25780638da5cb5b146102e257600080fd5b80634d95cad91461025a57806351cff8d91461027a57806369a511b21461029a57600080fd5b80632dd310001161015e5780632dd31000146101fa57806332fe7b261461021a578063358764761461023a57600080fd5b80631c286c8a146101855780632a268dd6146101a757600080fd5b3661018057005b600080fd5b34801561019157600080fd5b506101a56101a0366004612b71565b61049d565b005b3480156101b357600080fd5b506101dd6101c2366004612b37565b606c602052600090815260409020546001600160a01b031681565b6040516001600160a01b0390911681526020015b60405180910390f35b34801561020657600080fd5b50606b546101dd906001600160a01b031681565b34801561022657600080fd5b50606a546101dd906001600160a01b031681565b34801561024657600080fd5b506101a5610255366004612bf5565b61052a565b34801561026657600080fd5b506067546101dd906001600160a01b031681565b34801561028657600080fd5b506101a5610295366004612b37565b6106c5565b6101a56102a8366004612b71565b610883565b3480156102b957600080fd5b506101a56108cf565b3480156102ce57600080fd5b506068546101dd906001600160a01b031681565b3480156102ee57600080fd5b506033546001600160a01b03166101dd565b34801561030c57600080fd5b5061032061031b366004612cc2565b610935565b6040519081526020016101f1565b34801561033a57600080fd5b506101dd610349366004612b37565b6001600160a01b039081166000908152606c60205260409020541690565b34801561037357600080fd5b506069546101dd906001600160a01b031681565b34801561039357600080fd5b506101dd6103a2366004612eae565b606d602052600090815260409020546001600160a01b031681565b3480156103c957600080fd5b506101a56103d8366004612c8b565b610d35565b3480156103e957600080fd5b506065546101dd906001600160a01b031681565b34801561040957600080fd5b50610320610418366004612d15565b610ffc565b34801561042957600080fd5b506101a5610438366004612b71565b6114c2565b34801561044957600080fd5b506066546101dd906001600160a01b031681565b34801561046957600080fd5b506101a5610478366004612b37565b611549565b34801561048957600080fd5b506101a5610498366004612baa565b611628565b6033546001600160a01b031633146104fc5760405162461bcd60e51b815260206004820181905260248201527f4f776e61626c653a2063616c6c6572206973206e6f7420746865206f776e657260448201526064015b60405180910390fd5b6001600160a01b039182166000908152606c6020526040902080546001600160a01b03191691909216179055565b600054610100900460ff1680610543575060005460ff16155b6105a65760405162461bcd60e51b815260206004820152602e60248201527f496e697469616c697a61626c653a20636f6e747261637420697320616c72656160448201526d191e481a5b9a5d1a585b1a5e995960921b60648201526084016104f3565b600054610100900460ff161580156105c8576000805461ffff19166101011790555b6105d06116c0565b60006105e46033546001600160a01b031690565b6001600160a01b0316141561063b5760405162461bcd60e51b815260206004820152601960248201527f5a61704554483a206f776e6572206d757374206265207365740000000000000060448201526064016104f3565b606a80546001600160a01b03199081166001600160a01b038b811691909117909255606b805482168a84161790556068805482168684161790556065805482168984161790556067805482168784161790556069805482168584161790556066805490911691871691909117905580156106bb576000805461ff00191690555b5050505050505050565b6033546001600160a01b0316331461071f5760405162461bcd60e51b815260206004820181905260248201527f4f776e61626c653a2063616c6c6572206973206e6f7420746865206f776e657260448201526064016104f3565b6001600160a01b03811661076a576033546040516001600160a01b03909116904780156108fc02916000818181858888f19350505050158015610766573d6000803e3d6000fd5b5050565b806001600160a01b031663a9059cbb61078b6033546001600160a01b031690565b6040516370a0823160e01b81523060048201526001600160a01b038516906370a082319060240160206040518083038186803b1580156107ca57600080fd5b505afa1580156107de573d6000803e3d6000fd5b505050506040513d601f19601f820116820180604052508101906108029190612ec7565b6040516001600160e01b031960e085901b1681526001600160a01b0390921660048301526024820152604401602060405180830381600087803b15801561084857600080fd5b505af115801561085c573d6000803e3d6000fd5b505050506040513d601f19601f820116820180604052508101906107669190612e8c565b50565b61088e823483611782565b60675460405134916001600160a01b03808616929116907f4fd86e42fdf9189d86bda34d3e693c24264ea2b54ff7796d9e1d40f5e29f4f5990600090a45050565b6033546001600160a01b031633146109295760405162461bcd60e51b815260206004820181905260248201527f4f776e61626c653a2063616c6c6572206973206e6f7420746865206f776e657260448201526064016104f3565b6109336000611ada565b565b600061094c6001600160a01b038616333087611b2c565b606a54610962906001600160a01b031686611bb2565b60008390506000816001600160a01b0316630dfe16816040518163ffffffff1660e01b815260040160206040518083038186803b1580156109a257600080fd5b505afa1580156109b6573d6000803e3d6000fd5b505050506040513d601f19601f820116820180604052508101906109da9190612b54565b90506000826001600160a01b031663d21220a76040518163ffffffff1660e01b815260040160206040518083038186803b158015610a1757600080fd5b505afa158015610a2b573d6000803e3d6000fd5b505050506040513d601f19601f82011682018060405250810190610a4f9190612b54565b9050816001600160a01b0316886001600160a01b03161480610a825750806001600160a01b0316886001600160a01b0316145b15610bb7576000826001600160a01b0316896001600160a01b031614610aa85782610aaa565b815b606a54909150610ac3906001600160a01b031682611bb2565b6000610ad060028a613036565b90506000610ae08b838530611c4b565b606a549091506001600160a01b031663e8e337008c85610b00868f613058565b6040516001600160e01b031960e086901b1681526001600160a01b039384166004820152918316602483015260448201526064810185905260006084820181905260a4820152908b1660c48201524260e482015261010401606060405180830381600087803b158015610b7257600080fd5b505af1158015610b86573d6000803e3d6000fd5b505050506040513d601f19601f82011682018060405250810190610baa9190612f04565b9850610cd5945050505050565b6000610bc4600289613036565b90506000610bd48a838630611c4b565b90506000610bed8b610be6858d613058565b8630611c4b565b606a54909150610c06906001600160a01b031686611bb2565b606a54610c1c906001600160a01b031685611bb2565b606a5460405162e8e33760e81b81526001600160a01b0387811660048301528681166024830152604482018590526064820184905260006084830181905260a48301528a811660c48301524260e48301529091169063e8e337009061010401606060405180830381600087803b158015610c9557600080fd5b505af1158015610ca9573d6000803e3d6000fd5b505050506040513d601f19601f82011682018060405250810190610ccd9190612f04565b985050505050505b86866001600160a01b0316896001600160a01b03167f4fd86e42fdf9189d86bda34d3e693c24264ea2b54ff7796d9e1d40f5e29f4f5960405160405180910390a4610d2082336120bd565b610d2a81336120bd565b505050949350505050565b610d4a6001600160a01b038416823085611b2c565b606a54610d60906001600160a01b031684611bb2565b60008390506000816001600160a01b0316630dfe16816040518163ffffffff1660e01b815260040160206040518083038186803b158015610da057600080fd5b505afa158015610db4573d6000803e3d6000fd5b505050506040513d601f19601f82011682018060405250810190610dd89190612b54565b90506000826001600160a01b031663d21220a76040518163ffffffff1660e01b815260040160206040518083038186803b158015610e1557600080fd5b505afa158015610e29573d6000803e3d6000fd5b505050506040513d601f19601f82011682018060405250810190610e4d9190612b54565b6067549091506001600160a01b0383811691161480610e7957506067546001600160a01b038281169116145b15610f4b57606a546067546001600160a01b03918216916302751cec9185821691161415610ea75782610ea9565b835b6040516001600160e01b031960e084901b1681526001600160a01b03918216600482015260248101899052600060448201819052606482015290871660848201524260a482015260c4016040805180830381600087803b158015610f0c57600080fd5b505af1158015610f20573d6000803e3d6000fd5b505050506040513d601f19601f82011682018060405250810190610f449190612ee0565b5050610ff4565b606a54604051635d5155ef60e11b81526001600160a01b038481166004830152838116602483015260448201889052600060648301819052608483015286811660a48301524260c48301529091169063baa2abde9060e4016040805180830381600087803b158015610fbc57600080fd5b505af1158015610fd0573d6000803e3d6000fd5b505050506040513d601f19601f820116820180604052508101906106bb9190612ee0565b505050505050565b60006110136001600160a01b038a1633308b611b2c565b606a54611029906001600160a01b03168a611bb2565b60008790506000816001600160a01b0316630dfe16816040518163ffffffff1660e01b815260040160206040518083038186803b15801561106957600080fd5b505afa15801561107d573d6000803e3d6000fd5b505050506040513d601f19601f820116820180604052508101906110a19190612b54565b90506000826001600160a01b031663d21220a76040518163ffffffff1660e01b815260040160206040518083038186803b1580156110de57600080fd5b505afa1580156110f2573d6000803e3d6000fd5b505050506040513d601f19601f820116820180604052508101906111169190612b54565b9050816001600160a01b03168c6001600160a01b031614806111495750806001600160a01b03168c6001600160a01b0316145b156112d8578b858c60006001600160a01b038085169087161461116c578561116e565b845b90506000866001600160a01b0316856001600160a01b031614611192578b8b611195565b8d8d5b8080602002602001604051908101604052809392919081815260200183836020028082843760009201919091525050606a549293506111e1926001600160a01b03169150849050611bb2565b60006111ee600285613036565b905060006111fd8284306121c6565b606a549091506001600160a01b031663e8e33700888661121d868a613058565b6040516001600160e01b031960e086901b1681526001600160a01b039384166004820152918316602483015260448201526064810185905260006084820181905260a482015290891660c48201524260e482015261010401606060405180830381600087803b15801561128f57600080fd5b505af11580156112a3573d6000803e3d6000fd5b505050506040513d601f19601f820116820180604052508101906112c79190612f04565b9c5061145e98505050505050505050565b60006112e560028d613036565b90506000611328828c8c808060200260200160405190810160405280939291908181526020018383602002808284376000920191909152503092506121c6915050565b90506000611376838f61133b9190613058565b8b8b808060200260200160405190810160405280939291908181526020018383602002808284376000920191909152503092506121c6915050565b606a5490915061138f906001600160a01b031686611bb2565b606a546113a5906001600160a01b031685611bb2565b606a5460405162e8e33760e81b81526001600160a01b0387811660048301528681166024830152604482018590526064820184905260006084830181905260a48301528a811660c48301524260e48301529091169063e8e337009061010401606060405180830381600087803b15801561141e57600080fd5b505af1158015611432573d6000803e3d6000fd5b505050506040513d601f19601f820116820180604052508101906114569190612f04565b985050505050505b8a8a6001600160a01b03168d6001600160a01b03167f4fd86e42fdf9189d86bda34d3e693c24264ea2b54ff7796d9e1d40f5e29f4f5960405160405180910390a46114a982336120bd565b6114b381336120bd565b50505098975050505050505050565b6033546001600160a01b0316331461151c5760405162461bcd60e51b815260206004820181905260248201527f4f776e61626c653a2063616c6c6572206973206e6f7420746865206f776e657260448201526064016104f3565b6000611528838361228d565b6000908152606d6020526040902080546001600160a01b0319169055505050565b6033546001600160a01b031633146115a35760405162461bcd60e51b815260206004820181905260248201527f4f776e61626c653a2063616c6c6572206973206e6f7420746865206f776e657260448201526064016104f3565b6001600160a01b03811661161f5760405162461bcd60e51b815260206004820152602660248201527f4f776e61626c653a206e6577206f776e657220697320746865207a65726f206160448201527f646472657373000000000000000000000000000000000000000000000000000060648201526084016104f3565b61088081611ada565b6033546001600160a01b031633146116825760405162461bcd60e51b815260206004820181905260248201527f4f776e61626c653a2063616c6c6572206973206e6f7420746865206f776e657260448201526064016104f3565b600061168e848461228d565b6000908152606d6020526040902080546001600160a01b0319166001600160a01b039390931692909217909155505050565b600054610100900460ff16806116d9575060005460ff16155b61173c5760405162461bcd60e51b815260206004820152602e60248201527f496e697469616c697a61626c653a20636f6e747261637420697320616c72656160448201526d191e481a5b9a5d1a585b1a5e995960921b60648201526084016104f3565b600054610100900460ff1615801561175e576000805461ffff19166101011790555b6117666122fe565b61176e6123af565b8015610880576000805461ff001916905550565b60008390506000816001600160a01b0316630dfe16816040518163ffffffff1660e01b815260040160206040518083038186803b1580156117c257600080fd5b505afa1580156117d6573d6000803e3d6000fd5b505050506040513d601f19601f820116820180604052508101906117fa9190612b54565b90506000826001600160a01b031663d21220a76040518163ffffffff1660e01b815260040160206040518083038186803b15801561183757600080fd5b505afa15801561184b573d6000803e3d6000fd5b505050506040513d601f19601f8201168201806040525081019061186f9190612b54565b6067549091506001600160a01b038381169116148061189b57506067546001600160a01b038281169116145b156119b8576067546000906001600160a01b038481169116146118be57826118c0565b815b905060006118cf600288613036565b905060006118de838330612456565b606a549091506118f7906001600160a01b031684611bb2565b606a546001600160a01b031663f305d719611912848b613058565b6040516001600160e01b031960e084901b1681526001600160a01b0380881660048301526024820186905260006044830181905260648301528b1660848201524260a482015260c4016060604051808303818588803b15801561197457600080fd5b505af1158015611988573d6000803e3d6000fd5b50505050506040513d601f19601f820116820180604052508101906119ad9190612f04565b505050505050610ff4565b60006119c5600287613058565b905060006119d4848330612456565b905060006119ec846119e6858b613058565b30612456565b606a54909150611a05906001600160a01b031686611bb2565b606a54611a1b906001600160a01b031685611bb2565b606a5460405162e8e33760e81b81526001600160a01b0387811660048301528681166024830152604482018590526064820184905260006084830181905260a483015289811660c48301524260e48301529091169063e8e337009061010401606060405180830381600087803b158015611a9457600080fd5b505af1158015611aa8573d6000803e3d6000fd5b505050506040513d601f19601f82011682018060405250810190611acc9190612f04565b505050505050505050505050565b603380546001600160a01b038381166001600160a01b0319831681179093556040519116919082907f8be0079c531659141344cd1fd0a4f28419497f9722a3daafe3b4186f6b6457e090600090a35050565b6040516001600160a01b0380851660248301528316604482015260648101829052611bac9085906323b872dd60e01b906084015b60408051601f198184030181529190526020810180517bffffffffffffffffffffffffffffffffffffffffffffffffffffffff166001600160e01b0319909316929092179091526126b1565b50505050565b604051636eb1769f60e11b81523060048201526001600160a01b03838116602483015282169063dd62ed3e9060440160206040518083038186803b158015611bf957600080fd5b505afa158015611c0d573d6000803e3d6000fd5b505050506040513d601f19601f82011682018060405250810190611c319190612ec7565b610766576107666001600160a01b03821683600019612796565b606b5460405163e6a4390560e01b81526001600160a01b0386811660048301528481166024830152600092839291169063e6a439059060440160206040518083038186803b158015611c9c57600080fd5b505afa158015611cb0573d6000803e3d6000fd5b505050506040513d601f19601f82011682018060405250810190611cd49190612b54565b905060606001600160a01b03821615611d745760408051600280825260608201835290916020830190803683370190505090508681600081518110611d1b57611d1b6130a9565b60200260200101906001600160a01b031690816001600160a01b0316815250508481600181518110611d4f57611d4f6130a9565b60200260200101906001600160a01b031690816001600160a01b031681525050611ff8565b6040805160038082526080820190925290602082016060803683370190505090508681600081518110611da957611da96130a9565b60200260200101906001600160a01b031690816001600160a01b0316815250508481600281518110611ddd57611ddd6130a9565b6001600160a01b0392831660209182029290920101528216611e3c57606d6000611e07898861228d565b815260200190815260200160002060009054906101000a90046001600160a01b031681600181518110611d4f57611d4f6130a9565b606954611e539088906001600160a01b03166128c1565b8015611e705750606954611e70906001600160a01b0316866128c1565b15611e995760695481516001600160a01b039091169082906001908110611d4f57611d4f6130a9565b606854611eb09088906001600160a01b03166128c1565b8015611ecd5750606854611ecd906001600160a01b0316866128c1565b15611ef65760685481516001600160a01b039091169082906001908110611d4f57611d4f6130a9565b606654611f0d9088906001600160a01b03166128c1565b8015611f2a5750606654611f2a906001600160a01b0316866128c1565b15611f535760665481516001600160a01b039091169082906001908110611d4f57611d4f6130a9565b606554611f6a9088906001600160a01b03166128c1565b8015611f875750606554611f87906001600160a01b0316866128c1565b15611fb05760655481516001600160a01b039091169082906001908110611d4f57611d4f6130a9565b60405162461bcd60e51b815260206004820152600860248201527f5a41503a204e455000000000000000000000000000000000000000000000000060448201526064016104f3565b606a546040516338ed173960e01b81526000916001600160a01b0316906338ed173990612031908a90859087908b904290600401612ffa565b600060405180830381600087803b15801561204b57600080fd5b505af115801561205f573d6000803e3d6000fd5b505050506040513d6000823e601f3d908101601f191682016040526120879190810190612dc7565b905080600182516120989190613058565b815181106120a8576120a86130a9565b60200260200101519350505050949350505050565b6040516370a0823160e01b81523060048201526000906001600160a01b038416906370a082319060240160206040518083038186803b1580156120ff57600080fd5b505afa158015612113573d6000803e3d6000fd5b505050506040513d601f19601f820116820180604052508101906121379190612ec7565b905080156121c15760405163a9059cbb60e01b81526001600160a01b0383811660048301526024820183905284169063a9059cbb90604401602060405180830381600087803b15801561218957600080fd5b505af115801561219d573d6000803e3d6000fd5b505050506040513d601f19601f82011682018060405250810190611bac9190612e8c565b505050565b606a546040516338ed173960e01b815260009182916001600160a01b03909116906338ed1739906122039088908590899089904290600401612ffa565b600060405180830381600087803b15801561221d57600080fd5b505af1158015612231573d6000803e3d6000fd5b505050506040513d6000823e601f3d908101601f191682016040526122599190810190612dc7565b9050806001825161226a9190613058565b8151811061227a5761227a6130a9565b60200260200101519150505b9392505050565b6000816001600160a01b0316836001600160a01b0316106122af5781836122b2565b82825b6040516bffffffffffffffffffffffff19606084811b8216602084015283901b166034820152919450925060480160405160208183030381529060405280519060200120905092915050565b600054610100900460ff1680612317575060005460ff16155b61237a5760405162461bcd60e51b815260206004820152602e60248201527f496e697469616c697a61626c653a20636f6e747261637420697320616c72656160448201526d191e481a5b9a5d1a585b1a5e995960921b60648201526084016104f3565b600054610100900460ff1615801561176e576000805461ffff19166101011790558015610880576000805461ff001916905550565b600054610100900460ff16806123c8575060005460ff16155b61242b5760405162461bcd60e51b815260206004820152602e60248201527f496e697469616c697a61626c653a20636f6e747261637420697320616c72656160448201526d191e481a5b9a5d1a585b1a5e995960921b60648201526084016104f3565b600054610100900460ff1615801561244d576000805461ffff19166101011790555b61176e33611ada565b6001600160a01b038381166000908152606c60205260408120549091606091161561255957604080516003808252608082019092529060208201606080368337505060675482519293506001600160a01b0316918391506000906124bc576124bc6130a9565b6001600160a01b039283166020918202929092018101919091528682166000908152606c9091526040902054825191169082906001908110612500576125006130a9565b60200260200101906001600160a01b031690816001600160a01b0316815250508481600281518110612534576125346130a9565b60200260200101906001600160a01b031690816001600160a01b0316815250506125ee565b6040805160028082526060820183529091602083019080368337505060675482519293506001600160a01b031691839150600090612599576125996130a9565b60200260200101906001600160a01b031690816001600160a01b03168152505084816001815181106125cd576125cd6130a9565b60200260200101906001600160a01b031690816001600160a01b0316815250505b606a54604051637ff36ab560e01b81526000916001600160a01b031690637ff36ab590879061262790859087908a904290600401612f92565b6000604051808303818588803b15801561264057600080fd5b505af1158015612654573d6000803e3d6000fd5b50505050506040513d6000823e601f3d908101601f1916820160405261267d9190810190612dc7565b9050806001825161268e9190613058565b8151811061269e5761269e6130a9565b6020026020010151925050509392505050565b6000612706826040518060400160405280602081526020017f5361666545524332303a206c6f772d6c6576656c2063616c6c206661696c6564815250856001600160a01b031661295c9092919063ffffffff16565b8051909150156121c157808060200190518101906127249190612e8c565b6121c15760405162461bcd60e51b815260206004820152602a60248201527f5361666545524332303a204552433230206f7065726174696f6e20646964206e60448201527f6f7420737563636565640000000000000000000000000000000000000000000060648201526084016104f3565b80158061281f5750604051636eb1769f60e11b81523060048201526001600160a01b03838116602483015284169063dd62ed3e9060440160206040518083038186803b1580156127e557600080fd5b505afa1580156127f9573d6000803e3d6000fd5b505050506040513d601f19601f8201168201806040525081019061281d9190612ec7565b155b6128915760405162461bcd60e51b815260206004820152603660248201527f5361666545524332303a20617070726f76652066726f6d206e6f6e2d7a65726f60448201527f20746f206e6f6e2d7a65726f20616c6c6f77616e63650000000000000000000060648201526084016104f3565b6040516001600160a01b0383166024820152604481018290526121c190849063095ea7b360e01b90606401611b60565b606b5460405163e6a4390560e01b81526001600160a01b0384811660048301528381166024830152600092839291169063e6a439059060440160206040518083038186803b15801561291257600080fd5b505afa158015612926573d6000803e3d6000fd5b505050506040513d601f19601f8201168201806040525081019061294a9190612b54565b6001600160a01b031614159392505050565b606061296b8484600085612973565b949350505050565b6060824710156129eb5760405162461bcd60e51b815260206004820152602660248201527f416464726573733a20696e73756666696369656e742062616c616e636520666f60448201527f722063616c6c000000000000000000000000000000000000000000000000000060648201526084016104f3565b843b612a395760405162461bcd60e51b815260206004820152601d60248201527f416464726573733a2063616c6c20746f206e6f6e2d636f6e747261637400000060448201526064016104f3565b600080866001600160a01b03168587604051612a559190612f76565b60006040518083038185875af1925050503d8060008114612a92576040519150601f19603f3d011682016040523d82523d6000602084013e612a97565b606091505b5091509150612aa7828286612ab2565b979650505050505050565b60608315612ac1575081612286565b825115612ad15782518084602001fd5b8160405162461bcd60e51b81526004016104f39190612fc7565b60008083601f840112612afd57600080fd5b50813567ffffffffffffffff811115612b1557600080fd5b6020830191508360208260051b8501011115612b3057600080fd5b9250929050565b600060208284031215612b4957600080fd5b8135612286816130d5565b600060208284031215612b6657600080fd5b8151612286816130d5565b60008060408385031215612b8457600080fd5b8235612b8f816130d5565b91506020830135612b9f816130d5565b809150509250929050565b600080600060608486031215612bbf57600080fd5b8335612bca816130d5565b92506020840135612bda816130d5565b91506040840135612bea816130d5565b809150509250925092565b600080600080600080600060e0888a031215612c1057600080fd5b8735612c1b816130d5565b96506020880135612c2b816130d5565b95506040880135612c3b816130d5565b94506060880135612c4b816130d5565b93506080880135612c5b816130d5565b925060a0880135612c6b816130d5565b915060c0880135612c7b816130d5565b8091505092959891949750929550565b600080600060608486031215612ca057600080fd5b8335612cab816130d5565b9250602084013591506040840135612bea816130d5565b60008060008060808587031215612cd857600080fd5b8435612ce3816130d5565b9350602085013592506040850135612cfa816130d5565b91506060850135612d0a816130d5565b939692955090935050565b60008060008060008060008060c0898b031215612d3157600080fd5b8835612d3c816130d5565b9750602089013596506040890135612d53816130d5565b9550606089013567ffffffffffffffff80821115612d7057600080fd5b612d7c8c838d01612aeb565b909750955060808b0135915080821115612d9557600080fd5b50612da28b828c01612aeb565b90945092505060a0890135612db6816130d5565b809150509295985092959890939650565b60006020808385031215612dda57600080fd5b825167ffffffffffffffff80821115612df257600080fd5b818501915085601f830112612e0657600080fd5b815181811115612e1857612e186130bf565b8060051b604051601f19603f83011681018181108582111715612e3d57612e3d6130bf565b604052828152858101935084860182860187018a1015612e5c57600080fd5b600095505b83861015612e7f578051855260019590950194938601938601612e61565b5098975050505050505050565b600060208284031215612e9e57600080fd5b8151801515811461228657600080fd5b600060208284031215612ec057600080fd5b5035919050565b600060208284031215612ed957600080fd5b5051919050565b60008060408385031215612ef357600080fd5b505080516020909101519092909150565b600080600060608486031215612f1957600080fd5b8351925060208401519150604084015190509250925092565b600081518084526020808501945080840160005b83811015612f6b5781516001600160a01b031687529582019590820190600101612f46565b509495945050505050565b60008251612f8881846020870161307d565b9190910192915050565b848152608060208201526000612fab6080830186612f32565b6001600160a01b03949094166040830152506060015292915050565b6020815260008251806020840152612fe681604085016020870161307d565b601f01601f19169190910160400192915050565b85815284602082015260a06040820152600061301960a0830186612f32565b6001600160a01b0394909416606083015250608001529392505050565b60008261305357634e487b7160e01b600052601260045260246000fd5b500490565b60008282101561307857634e487b7160e01b600052601160045260246000fd5b500390565b60005b83811015613098578181015183820152602001613080565b83811115611bac5750506000910152565b634e487b7160e01b600052603260045260246000fd5b634e487b7160e01b600052604160045260246000fd5b6001600160a01b038116811461088057600080fdfea164736f6c6343000807000a",
  "linkReferences": {},
  "deployedLinkReferences": {}
}